:020000040800F2
:1000000000000220ED22000885060008870600088F
:10001000890600088B0600088D0600080000000015
:100020000000000000000000000000008F06000833
:1000300091060008000000009306000895060008DD
:100040003D2300083D2300083D2300083D23000810
:100050003D2300083D2300083D2300083D23000800
:100060003D2300083D2300083D2300083D230008F0
:100070003D2300083D2300083D2300083D230008E0
:100080003D2300083D2300083D2300083D230008D0
:100090003D2300083D2300083D2300083D230008C0
:1000A0003D2300083D2300083D2300083D230008B0
:1000B0003D2300083D2300083D2300083D230008A0
:1000C0003D2300083D2300083D2300083D23000890
:1000D0003D2300083D2300083D2300083D23000880
:1000E0003D2300083D2300083D2300083D23000870
:1000F0003D2300083D2300083D2300083D23000860
:100100003D2300083D2300083D2300083D2300084F
:100110003D2300083D2300083D2300083D2300083F
:100120009D0600083D2300083D2300083D230008EC
:100130003D23000800000000000000003D230008EF
:100140003D2300083D2300083D2300083D2300080F
:100150003D2300083D2300083D2300083D230008FF
:100160003D2300083D2300083D2300083D230008EF
:100170003D2300083D2300083D2300080000000047
:10018000000000003D230008000000000000000007
:100190003D23000800000000000000003D2300088F
:1001A0000000000000000000000000003D230008E7
:1001B0003D2300083D2300083D2300083D2300089F
:0401C0003D230008D3
:1001C40053B94AB9002908BF00281CBF4FF0FF31BA
:1001D4004FF0FF3000F00CB8ADF1080C6DE904CE1F
:1001E40002F0D8F8DDF804E0DDE9022304B070473A
:1001F400704700BF10B5054C237833B9044B13B1D5
:100204000448AFF300800123237010BD0C000020CC
:10021400000000003826000808B5034B1BB1034951
:100224000348AFF3008008BD000000001000002068
:100234003826000800B585B000230093019302938B
:1002440003932648264A02604360836001220261C8
:10025400037680F820304FF08051C1624FF0C061C6
:100264008162C3600421C16180F83020436100F0E1
:10027400B1FB20BB0E2300930123019300230293BF
:100284006946164800F0ECFCE0B908230093022309
:1002940001936946114800F0E3FCB0B903230193CC
:1002A40069460E4800F0DCFC90B9042301936946CA
:1002B4000A4800F0D5FC70B905B05DF804FB00F005
:1002C4004AF9D7E700F047F9DFE700F044F9E5E73A
:1002D40000F041F9E9E700F03EF9EDE7880000207D
:1002E4000020014070B588B0002303930493059364
:1002F40006930793026803F1804303F590339A420F
:1003040001D008B070BD04460025009503F58C3378
:100314005A6C42F480725A645A6C02F480720092ED
:10032400009A01951A6B42F004021A631A6B02F0E8
:1003340004020192019A02951A6B42F002021A63B6
:100344001B6B03F002030293029B302303930326E7
:10035400049603A9134801F081F8039604960595C1
:1003640003A9114801F07AF81048114B0360456065
:100374008560C5604FF4806303614FF4006343619B
:100384004FF4005383614FF48073C3610562456287
:1003940000F0DAFE18B9054BA3639C63B1E700F0E3
:1003A400DAF8F8E7000802400004024028000020C0
:1003B4001064024008B50D480D4B036005234360EB
:1003C40000238360C3604FF4602202614FF4801203
:1003D4004261037643768376C3760377437700F0EE
:1003E40015FD00B908BD00F0B6F8FBE7D000002009
:1003F4000064004000B589B000230393049305937F
:10040400069307930268154B9A4202D009B05DF82F
:1004140004FB0021019103F5EA331A6C42F00072E7
:100424001A641A6C02F000720192019A02911A6B1A
:1004340042F001021A631B6B03F001030293029B57
:100444004FF4C05303930223049303230693092315
:10045400079303A9024801F001F8D7E700640040BC
:100464000000024000B583B000210191094B1A6BD2
:1004740042F480021A631B6B03F480030193019B13
:100484000A46382000F0BCFD382000F0C9FD03B056
:100494005DF804FB0038024070B58AB0002405946E
:1004A40006940794089409940194274B1A6B42F01C
:1004B40004021A631A6B02F004020192019A029474
:1004C4001A6B42F080021A631A6B02F080020292E5
:1004D400029A03941A6B42F001021A631A6B02F037
:1004E40001020392039A04941A6B42F002021A6303
:1004F4001B6B03F002030493049B144D224620213A
:10050400284601F09BF84FF4005305934FF404136D
:10051400069307940E4E05A9304600F09FFF022370
:1005240005930694079405A9304600F097FF20230D
:100534000593012306930794089405A9284600F01F
:100544008DFF0AB070BD00BF0038024000000240B9
:1005540000080240704772B6FEE7000000B595B08F
:100564003422002107A801F0E8FE0023029303933C
:1005740004930593069300931F4A116C41F0805134
:100584001164126C02F080520092009A01931B498C
:100594000A6822F4404242F480420A600A6802F483
:1005A40040420192019A0222079201210A911021EC
:1005B4000B910D920E9308230F935A2310931192CB
:1005C4001292139207A801F0DDF980B90F23029368
:1005D40002210391002304934FF48053059306935F
:1005E40002A801F031F820B915B05DF804FBFFF75B
:1005F400B2FFFFF7B0FF00BF0038024000700040B8
:1006040008B500F021F9FFF7A9FFFFF745FFFFF751
:1006140029FF00F0A1F8FFF70DFE00F04FF8FFF7F7
:10062400C9FE04220349044800F000FA034801F01B
:10063400FBFBFEE7F80000208800002000010020FA
:1006440000B583B0002100910C4B5A6C42F48042F7
:100654005A645A6C02F480420092009A01911A6C16
:1006640042F080521A641B6C03F080530193019B87
:10067400072000F0B3FC03B05DF804FB003802402F
:10068400FEE7FEE7FEE7FEE7FEE7704770477047C8
:1006940008B500F0F3F808BD08B5024800F0F0FD15
:1006A40008BD00BF28000020034AD2F8883043F474
:1006B4007003C2F88830704700ED00E000B587B0E1
:1006C4000023029303930493059300930193164824
:1006D4004FF08042026042F227324260836042F26D
:1006E4000F72C2600361836101F048FC98B94FF452
:1006F4008053029302A90C4801F079FC70B92023BD
:100704000093002301936946074801F0EFFC40B9C8
:1007140007B05DF804FBFFF71EFFE8E7FFF71BFFD8
:10072400EDE7FFF718FFF3E7000100200368B3F1DA
:10073400804F00D0704782B000230193054B1A6CA0
:1007440042F001021A641B6C03F001030193019B44
:1007540002B070470038024008B50A480A4B0360EB
:100764004FF4E133436000238360C36003610C22D0
:1007740042618361C36101F087FD00B908BDFFF7E1
:10078400EAFEFBE7480100200044004000B589B0C0
:100794000023039304930593069307930268154B70
:1007A4009A4202D009B05DF804FB0021019103F5DF
:1007B400FA331A6C42F400321A641A6C02F40032EE
:1007C4000192019A02911A6B42F001021A631B6BA7
:1007D40003F001030293029B0C230393022304936B
:1007E400032306930723079303A9034800F036FE67
:1007F400D8E700BF004400400000024010B50446A2
:100804000E4B1A784FF47A73B3FBF2F30C4A106868
:10081400B0FBF3F000F008FC68B90F2C01D90120FB
:100824000AE0002221464FF0FF3000F0E9FB054BBF
:100834001C60002000E0012010BD00BF0400002067
:10084400000000200800002008B50B4B1A6842F491
:1008540000721A601A6842F480621A601A6842F4DC
:1008640080721A60032000F0B9FB0020FFF7C6FF76
:10087400FFF7E6FE002008BD003C0240034A116871
:10088400034B1B780B441360704700BF900100209A
:1008940004000020014B1868704700BF900100203D
:1008A4004A4B5A6822F440325A605A6841680A43F3
:1008B4005A600268536823F4807353600268536873
:1008C400016943EA012353600268536823F04073CB
:1008D40053600268536881680B43536002689368ED
:1008E40023F40063936002689368C1680B439360C8
:1008F400826A374B9A4257D00268936823F0706338
:10090400936002689368816A0B43936002689368FA
:1009140023F04053936002689368C16A0B43936069
:100924000268936823F00203936002689368017E6F
:1009340043EA4103936090F82030002B3FD00268D3
:10094400536843F4006353600268536823F46043BC
:10095400536001684B68426A013A43EA42334B6090
:100964000268D36A23F47003D3620168CB6AC26954
:10097400013A43EA0253CB620268936823F400739A
:1009840093600268936890F8301043EA41239360BF
:100994000268936823F480639360026893684169F2
:1009A40043EA8123936070470268936823F070637D
:1009B40093600268936823F040539360B0E7026841
:1009C400536823F400635360CAE700BF0023014067
:1009D4000100000F38B310B50446036C43B1236C17
:1009E40013F0100F0BD00120002384F83C3010BD0D
:1009F400FFF778FC0023636484F83C30EFE7236C52
:100A040023F4885323F0020343F0020323642046B3
:100A1400FFF746FF00206064236C23F0030343F0D8
:100A240001032364E0E701207047000010B582B0A1
:100A340013460022019290F83C20012A00F0AE8077
:100A44000446012280F83C200268906810F0010FEF
:100A540013D1906840F001009060534A1068534AE3
:100A6400A2FB0020800C00EB4000019002E0019802
:100A74000138019001980028F9D12268906810F497
:100A8400807F03D0906820F4807090602268906822
:100A940010F0010F77D0206C20F4E06020F001000A
:100AA40040F480702064526812F4806F05D0226C88
:100AB40022F4405242F480522264226C12F4805F89
:100AC40036D0626C22F006026264002284F83C2074
:100AD400A26B3748D063A26B36481064A26B3648C9
:100AE400D06422686FF0220010602068426842F0EF
:100AF400806242602068826842F48072826020686A
:100B04000A4600F14C01A06B00F084FB2B4B5B68A0
:100B140013F01F0F27D12368294A934211D002F5FD
:100B24008072934207D0274A934214D0002033E0C6
:100B340000226264C9E702F50072526812F01F0FC6
:100B4400F1D19A6812F0405F2AD19A6842F080424B
:100B54009A60002020E002F58072526812F0100FB3
:100B6400EFD0002018E02368154A934201D00020FA
:100B740012E09A6812F0405F14D19A6842F0804201
:100B84009A60002008E0236C43F010032364636C34
:100B940043F001036364002002B010BD0220FBE7B0
:100BA4000020F9E70020F7E70000002083DE1B4364
:100BB400F10B0008CF0B0008DB0B000800230140F9
:100BC4000020014000220140704708B5806BFFF708
:100BD400FBFF08BD704708B5806B40230364436C7A
:100BE40043F004034364FFF7F5FF08BD08B503466B
:100BF400806B026C12F0500F25D1036C43F4007328
:100C0400036403689A6812F0405F19D1027EBAB98E
:100C1400DA6A12F4700F03D09A6812F4806F0FD15D
:100C24005A6822F020025A60036C23F48073036430
:100C3400036C13F4805F03D1036C43F0010303647A
:100C4400FFF788FC08BD026C12F0100F04D1826B10
:100C5400D26C18469047F5E7FFF7BCFFF2E70000B7
:100C640030B482B00022019290F83C20012A00F0B6
:100C7400C0800346012280F83C200A68092A40D932
:100C84000468E06892B202EB42021E3A4FF0070C8D
:100C94000CFA02F220EA0202E2601C68E0680A88A8
:100CA40002EB42021E3A8D6805FA02F20243E26048
:100CB4004A68062A3CD81C68606B02EB8202053A3B
:100CC4004FF01F0C0CFA02F220EA020262631C6865
:100CD400606B4A6802EB8202053AB1F800C00CFA74
:100CE40002F2024362631868434A904250D0186883
:100CF400414A904259D0002083F83C0002B030BCF5
:100D040070470468206992B202EB42024FF0070C6C
:100D14000CFA02F220EA020222611C6820690A88A5
:100D240002EB42028D6805FA02F202432261BFE738
:100D34000C2A16D81D68286B02EB8202233A1F2462
:100D440004FA02F220EA02022A631D68286B4A6848
:100D540002EB8202233A0C8804FA02F202432A6369
:100D6400C1E71D68E86A02EB8202413A1F2404FAD3
:100D740002F220EA0202EA621D68E86A4A6802EBAB
:100D84008202413A0C8804FA02F20243EA62AAE7B8
:100D94000A68122AABD1194A506820F40000506046
:100DA400506840F480005060A1E70A681448824209
:100DB40001D0112A9FD1114A506820F4800050605C
:100DC400506840F40000506009680D4A914292D185
:100DD4000C4A12680C49A1FB0212920C02EB82022B
:100DE40052000192019A002A85D0019A013A019297
:100DF400F8E7022082E700BF002001400023014001
:100E0400120000100000002083DE1B43002800F0C5
:100E1400A18038B5044690F82030D3B12268136815
:100E240043F001031360FFF735FD054623685A6854
:100E340012F0010F10D1FFF72DFD401B0A28F5D940
:100E4400636A43F400336362052384F8203001208D
:100E540038BDFFF7CFFAE1E71A6822F002021A6000
:100E6400FFF718FD054623685A6812F0020F0DD0EB
:100E7400FFF710FD401B0A28F5D9636A43F40033D9
:100E84006362052384F820300120E1E7227E012AF1
:100E94003DD01A6822F080021A60637E012B3BD099
:100EA4002268136823F040031360A37E012B39D01A
:100EB4002268136823F020031360E37E012B37D0EC
:100EC4002268136843F010031360237F012B35D08D
:100ED4002268136823F008031360637F012B33D067
:100EE4002268136823F004031360A368E2681343C1
:100EF40022691343626913436268013A2168134308
:100F0400CB6100206062012384F82030A0E71A68D6
:100F140042F080021A60C0E72268136843F040037D
:100F24001360C2E72268136843F020031360C4E728
:100F34002268136823F010031360C6E7226813685D
:100F440043F008031360C8E72268136843F00403FE
:100F54001360CAE701207047002807DB00F01F0276
:100F6400400901239340024A42F82030704700BFF1
:100F740000E100E0002808DB0901C9B200F160408B
:100F840000F5614080F80013704700F00F0009017C
:100F9400C9B2014B1954704714ED00E000B500F0DC
:100FA4000700C0F1070CBCF1040F28BF4FF0040C7C
:100FB400031D062B0FD9C31E4FF0FF3E0EFA0CF093
:100FC40021EA000199400EFA03FE22EA0E0241EAE8
:100FD40002005DF804FB0023EEE70000074AD36833
:100FE40023F4E0631B041B0C000200F4E0600343E1
:100FF40043F0BF6343F40033D360704700ED00E077
:1010040010B50446054BD868C0F30220FFF7C6FFAD
:1010140001462046FFF7AEFF10BD00BF00ED00E023
:1010240008B5FFF799FF08BD0138B0F1807F0BD2F6
:101034004FF0E0235861054AF02182F82310002084
:10104400986107221A6170470120704700ED00E0A3
:1010540030B405682C6824F480242C600468636030
:101064008368402B05D0036899600368DA6030BC5C
:10107400704703689A600368D960F8E710B403689E
:10108400D9B210390A4AA2FB01421209094CA25CE6
:10109400C2655F2907D96FF3090304338365806D43
:1010A4005DF8044B70476FF309038365F7E700BFEE
:1010B400ABAAAAAA68260008836A826992B9012B9E
:1010C4000AD0022B02D00BB100207047C36A13F080
:1010D400807F28D100207047C36AB3F1C07F24D039
:1010E40000207047B2F5005F09D0022B25D9032BED
:1010F40025D1C36A13F0807F23D100207047032BCE
:1011040003D8DFE803F01404140A00207047C36A0C
:1011140013F0807F0DD100207047C36AB3F1C07F04
:1011240009D000207047012070470120704701203A
:10113400704701207047012070470120704700204C
:10114400704701207047000070B50446FFF7A2FB0A
:10115400002C5BD00546022384F83530002384F844
:1011640034302268136823F00103136023681A687B
:1011740012F0010F0AD0FFF78DFB431B052BF5D9A5
:1011840020236365032084F8350070BD1A68204964
:1011940011406268A0680243E06802432069024388
:1011A40060690243A0690243E0690243206A024382
:1011B4000A43616A04291ED01A602668756925F0FD
:1011C4000705636A1D43042B07D1A36A1D43E36A21
:1011D4001BB12046FFF770FF90B975612046FFF7F9
:1011E4004DFFE26D3F23934083600020606501233F
:1011F40084F83530C9E7E16A206B01430A43DBE731
:1012040040236365012084F83500BEE70120BCE774
:101214003F8010F038B50446856D90F834000128FD
:101224002BD0012084F8340094F83500C0B2012892
:1012340004D0002384F83430022038BD022084F81E
:101244003500002060652046FFF702FFE26D3F2372
:101254009340AB602268136843F016031360236C59
:1012640023B12268136843F00803136022681368EB
:1012740043F0010313600020DFE70220DDE70000F4
:10128400F0B583B0044600230193724B1D68724B82
:10129400A3FB0535AD0A876D3E68C26D08239340F4
:1012A400334210D003681A6812F0040F0BD01A6886
:1012B40022F004021A60C26D08239340BB60436DA0
:1012C40043F001034365E26D01239340334209D0A7
:1012D4002268526912F0800F04D0BB60636D43F042
:1012E40002036365E26D04239340334209D022680C
:1012F400126812F0020F04D0BB60636D43F0040364
:101304006365E26D10239340334224D0226812684F
:1013140012F0080F1FD0BB6023681A6812F4802FE4
:101324000DD01B6813F4002F04D1236C9BB120460D
:10133400984710E0A36C73B1204698470BE01A68F5
:1013440012F4807F03D11A6822F008021A60236C19
:101354000BB120469847E26D20239340334255D089
:101364002268126812F0100F50D0BB6094F8353028
:10137400DBB2052B0ED023681A6812F4802F33D009
:101384001B6813F4002F2AD1636C002B3ED0204637
:1013940098473BE02268136823F016031360226821
:1013A400536923F080035361236CA3B1226813684B
:1013B40023F008031360E26D3F239340BB600123D5
:1013C40084F83530002384F83430236D002B3FD06B
:1013D400204698473CE0A36C002BE7D1EBE7E36B96
:1013E400A3B12046984711E01A6812F4807F09D10E
:1013F4001A6822F010021A60012384F835300023A1
:1014040084F83430E36B0BB120469847636DFBB12D
:10141400636D13F0010F17D0052384F8353022686B
:10142400136823F001031360019B01330193AB4262
:1014340004D823681B6813F0010FF5D1012384F845
:101444003530002384F83430E36C0BB120469847E0
:1014540003B0F0BD00000020B5814E1B00230F2B0C
:1014640000F2E38070B582B065E085684FEA430E10
:10147400032404FA0EF425EA0405CC6804FA0EF4F5
:101484002C438460446824EA02044A68C2F30012CC
:101494009A40224342605CE0DC08083450F824207F
:1014A40003F00705AD004FF00F0E0EFA05FE22EA19
:1014B4000E0E0A69AA4042EA0E0240F824205CE0BB
:1014C400062200E0002202FA0EF22A430234574DAB
:1014D40045F82420564A94686FEA0C0224EA0C0565
:1014E4004E6816F4801F01D04CEA0405504CA560E8
:1014F400E46802EA04054E6816F4001F01D04CEAC1
:1015040004054B4CE560646802EA04054E6816F471
:10151400003F01D04CEA0405454C65602468224034
:101524004D6815F4803F01D04CEA0402404C22601F
:1015340001330F2B77D801229A400C6804EA020C7D
:1015440032EA0404F4D14C6804F00304013C012C95
:101554008BD94A6802F00302032A09D0C4685D00EB
:101564000322AA4024EA02048A68AA402243C260F1
:101574004A6802F00302022A8ED004684FEA430E3E
:10158400032202FA0EF224EA02044A6802F0030279
:1015940002FA0EF2224302604A6812F4403FC7D0B6
:1015A40000220192234A546C44F480445464526CE3
:1015B40002F480420192019A9C08A51C1B4A52F82D
:1015C400255003F0030E4FEA8E0E0F2202FA0EF29C
:1015D40025EA0205184A90423FF474AF02F580628E
:1015E400904216D002F58062904214D002F58062D7
:1015F400904212D002F58062904210D002F58062CF
:1016040090420ED002F5806290423FF459AF072217
:1016140059E7012257E7022255E7032253E7042240
:1016240051E705224FE702B070BD70470038014012
:10163400003C014000380240000002400AB18161D0
:101644007047090481617047002800F09B8070B5E1
:101654000D4604464F4B1B6803F00F038B4208D220
:10166400CBB24C4A1370136803F00F038B4240F063
:101674008B80236813F0020F17D013F0040F04D0EB
:10168400454A936843F4E0539360236813F0080FCA
:1016940004D0414A936843F4604393603E4A93689C
:1016A40023F0F003A1680B439360236813F0010F48
:1016B40032D06368012B21D09A1E012A25D9364ADB
:1016C400126812F0020F61D033498A6822F00302D3
:1016D40013438B60FFF7DEF806462F4B9B6803F03D
:1016E4000C036268B3EB820F16D0FFF7D3F8801BAC
:1016F40041F288339842F0D9032042E0264A126826
:1017040012F4003FE0D101203BE0234A126812F0BA
:10171400007FD9D1012034E01E4B1B6803F00F0376
:10172400AB4207D9EAB21B4B1A701B6803F00F03D4
:10173400AB422DD1236813F0040F06D0164A9368E8
:1017440023F4E053E1680B439360236813F0080F1C
:1017540007D0114A936823F46043216943EAC10323
:10176400936000F047F80C4B9B68C3F303130B4AD8
:10177400D35CD8400A4B18600A4B1868FFF73EF850
:10178400002070BD012070470120FAE70120F8E72E
:101794000120F6E7003C02400038024058260008C9
:1017A4000000002008000020014B1868704700BFAB
:1017B4000000002008B5FFF7F7FF044B9B68C3F354
:1017C4008223034AD35CD84008BD00BF00380240DE
:1017D4005026000808B5FFF7E7FF044B9B68C3F3E6
:1017E4004233034AD35CD84008BD00BF00380240EE
:1017F4005026000808B5604B9B6803F00C03082BC7
:1018040006D00C2B5ED0042B40F0B4805B4833E050
:10181400594B5A6802F03F025B6813F4800F2CD0D6
:10182400554B5868C0F388104FEA401CBCEB000CC1
:101834006EEB0E0E4FEA8E1343EA9C634FEA8C1153
:10184400B1EB0C0163EB0E03DB0043EA5173C900F7
:1018540011EB000C43F10003590200234FEA4C2022
:1018640041EADC51FEF7ACFC434B5B68C3F3014334
:1018740001335B00B0FBF3F008BD3F4B5868C0F385
:1018840088104FEA401CBCEB000C6EEB0E0E4FEAC6
:101894008E1343EA9C634FEA8C11B1EB0C0163EBAA
:1018A4000E03DB0043EA5173C90011EB000C43F152
:1018B4000003990200234FEA8C2041EA9C51FEF771
:1018C4007FFCD1E72C4B5A6802F03F025B6813F4AB
:1018D400800F2AD0284B5868C0F388104FEA401C68
:1018E400BCEB000C6EEB0E0E4FEA8E1343EA9C63C6
:1018F4004FEA8C11B1EB0C0163EB0E03DB0043EAFE
:101904005173C90011EB000C43F100035902002389
:101914004FEA4C2041EADC51FEF752FC164B5B685F
:10192400C3F30273B0FBF3F0A6E7134B5868C0F39C
:1019340088104FEA401CBCEB000C6EEB0E0E4FEA15
:101944008E1343EA9C634FEA8C11B1EB0C0163EBF9
:101954000E03DB0043EA5173C90011EB000C43F1A1
:101964000003990200234FEA8C2041EA9C51FEF7C0
:1019740027FCD3E702487FE70038024000127A00D0
:101984000024F400002800F0018270B582B00446FF
:10199400036813F0010F41D0994B9B6803F00C03CB
:1019A400042B32D0964B9B6803F00C03082B27D0F2
:1019B400934B9B6803F00C030C2B59D06368B3F56D
:1019C400803F5BD0B3F5A02F5ED08D4B1A6822F414
:1019D40080321A601A6822F480221A606368002B2D
:1019E4005CD0FEF757FF0546854B1B6813F4003F98
:1019F40014D1FEF74FFF401B6428F5D90320CCE136
:101A04007F4B5B6813F4800FD2D07D4B1B6813F4BB
:101A1400003F03D06368002B00F0BA81236813F001
:101A2400020F60D0764B9B6813F00C0F4AD0744BB6
:101A34009B6803F00C03082B3FD0714B9B6803F0A9
:101A44000C030C2B69D0E368002B75D06D4B01227D
:101A54001A60FEF71FFF0546694B1B6813F0020F5F
:101A640061D1FEF717FF401B0228F5D9032094E14A
:101A7400634B5B6813F4800FA0D0C6E7604A136819
:101A840043F480331360A9E75D4B1A6842F4802263
:101A94001A601A6842F480321A609FE7FEF7FAFE71
:101AA4000546574B1B6813F4003FB7D0FEF7F2FE10
:101AB400401B6428F5D903206FE1514B5B6813F494
:101AC400800FBAD14E4B1B6813F0020F03D0E368AA
:101AD400012B40F05F814A4A136823F0F80321691F
:101AE40043EAC1031360236813F0080F49D0636904
:101AF400002B33D0434B0122C3F8802EFEF7CAFEDD
:101B040005463F4B5B6F13F0020F3AD1FEF7C2FE5E
:101B1400401B0228F5D903203FE1394B5B6813F4DD
:101B2400800F90D1CEE7364A136823F0F803216979
:101B340043EAC1031360D6E7324B00221A60FEF772
:101B4400A9FE05462E4B1B6813F0020FCBD0FEF7FF
:101B5400A1FE401B0228F5D903201EE1294B0022D7
:101B6400C3F8802EFEF796FE0546254B5B6F13F0F7
:101B7400020F06D0FEF78EFE401B0228F5D9032083
:101B84000BE1236813F0040F76D01D4B1B6C13F08C
:101B9400805F33D100230193194B1A6C42F08052B9
:101BA4001A641B6C03F080530193019B0125164BAF
:101BB4001B6813F4807F29D0A368012B3AD0052B2E
:101BC4003ED00F4B1A6F22F001021A671A6F22F0EF
:101BD40004021A67A368002B3CD0FEF75BFE06469E
:101BE400074B1B6F13F0020F45D1FEF753FE801B0A
:101BF40041F288339842F3D90320CEE00025D6E79A
:101C04000038024000004742007000406B4A1368ED
:101C140043F480731360FEF73DFE0646674B1B6872
:101C240013F4807FC8D1FEF735FE801B0228F5D956
:101C34000320B2E0624A136F43F001031367C9E75C
:101C44005F4B1A6F42F004021A671A6F42F00102E6
:101C54001A67BFE7FEF71EFE0646594B1B6F13F0CB
:101C6400020F08D0FEF716FE801B41F2883398421B
:101C7400F3D9032091E0EDB9A369002B00F08C8027
:101C84004F4A926802F00C02082A54D0022B17D053
:101C94004C4B00221A66FEF7FDFD0446484B1B68B8
:101CA40013F0007F45D0FEF7F5FD001B0228F5D99F
:101CB400032072E0424A136C23F080531364DBE781
:101CC400404B00221A66FEF7E5FD05463C4B1B68B7
:101CD40013F0007F06D0FEF7DDFD401B0228F5D986
:101CE40003205AE0E369226A1343626A43EA8213D7
:101CF400A26A5208013A43EA0243E26A43EA0263EF
:101D0400226B43EA02732E4A53602E4B01221A6659
:101D1400FEF7C0FD04462A4B1B6813F0007F06D172
:101D2400FEF7B8FD001B0228F5D9032035E000209A
:101D340033E0002031E0012B31D0214B5B6803F408
:101D44008001E26991422CD103F03F02216A8A4268
:101D540029D1616A47F6C0721A40B2EB811F24D1BF
:101D640003F44031A26A5208013AB1EB024F1ED18A
:101D740003F07062E16AB2EB016F1AD103F0E04341
:101D8400226BB3EB027F16D1002006E001207047DE
:101D9400012002E0012000E0002002B070BD01201B
:101DA400FBE70120F9E70120F7E70120F5E701202F
:101DB400F3E70120F1E70120EFE700BF00700040E6
:101DC400003802400000474210B4036A046A24F059
:101DD40001040462846924F0F00C4CEA021223F03A
:101DE4000A030B43826103625DF8044B704710B42D
:101DF400036A046A24F010040462846924F4704CB5
:101E04004CEA023223F0A00343EA01138261036225
:101E14005DF8044B7047836823F070030B4343F071
:101E2400070383607047000090F83D30DBB2012B5C
:101E340032D1022380F83D300368194A934220D0FE
:101E4400B3F1804F1DD0A2F57C42934219D002F524
:101E54008062934215D002F58062934211D002F55C
:101E6400784293420DD002F57052934209D0A2F504
:101E74009432934205D01A6842F001021A6000209D
:101E840070479A6802F00702062A07D01A6842F0DF
:101E940001021A600020704701207047002070473B
:101EA400000001400368344A904212D0B0F1804FE0
:101EB4000FD0A2F57C4290420BD002F58062904292
:101EC40007D002F58062904203D002F57842904236
:101ED40003D123F070034A681343274A90422AD05F
:101EE400B0F1804F27D0A2F57C42904223D002F576
:101EF400806290421FD002F5806290421BD002F5AE
:101F04007842904217D002F57052904213D002F5F5
:101F1400806290420FD002F5806290420BD0A2F50D
:101F24009832904207D002F58062904203D002F5C5
:101F34008062904203D123F44073CA68134323F0B0
:101F440080034A69134303608B68C3620B6883622E
:101F5400094B984203D003F58063984201D10B6981
:101F6400036301234361036913F0010F03D0036981
:101F740023F00103036170470000014040B310B532
:101F8400044690F83D30F3B1022384F83D302146F5
:101F940051F8040BFFF786FF012384F8463084F8D8
:101FA4003E3084F83F3084F8403084F8413084F87F
:101FB400423084F8433084F8443084F8453084F85F
:101FC4003D30002010BD80F83C30FEF7AFFBDBE76E
:101FD4000120704710B4846824F47F4C42EA032241
:101FE4000A4342EA0C0282605DF8044B704790F8A1
:101FF4003C30012B78D010B50446012380F83C30E6
:10200400022380F83D300268936823F47F4323F071
:10201400770393600B68602B4CD023D8402B54D0AB
:1020240011D8202B03D00AD80BB1102B05D1194697
:102034002068FFF7F0FE002028E0012026E0302B86
:10204400F5D0012022E0502B0AD1CA684968006803
:10205400FFF7BAFE50212068FFF7DDFE002015E0EF
:10206400012013E0B3F5805F3AD0B3F5005F14D0DC
:10207400702B37D1CB684A6889680068FFF7AAFFDC
:102084002268936843F0770393600020012384F867
:102094003D30002384F83C3010BDCB684A68896821
:1020A4000068FFF797FF2268936843F480439360C6
:1020B4000020EBE7CA6849680068FFF798FE6021D2
:1020C4002068FFF7A8FE0020E0E7CA6849680068B6
:1020D400FFF77AFE40212068FFF79DFE0020D5E738
:1020E4000020D3E70120D1E70220704790F83C207C
:1020F400012A3DD010B40346012280F83C2002227C
:1021040080F83D2002685068946820F0700C0868DC
:1021140040EA0C0050601A68164882421AD0B2F1A4
:10212400804F17D0A0F57C40824213D000F5806028
:1021340082420FD000F5806082420BD000F57840D7
:10214400824207D000F57050824203D0A0F594304B
:10215400824204D124F08004496821439160012221
:1021640083F83D20002083F83C005DF8044B704761
:10217400022070470000014010B50446026813694C
:1021840023F44053C1680B431361836802691A4303
:1021940043691A43C3691A430168CB6823F416439D
:1021A40023F00C031343CB600268536923F4407398
:1021B40081690B4353610368314A934206D002F5A7
:1021C4008062934202D0FFF7F5FA01E0FFF702FBC9
:1021D400E369B3F5004F29D00021031849411B18C6
:1021E40041F10001C90041EA5371DB00181863682A
:1021F4004FEA83024FEA937341F10001FDF7E0FFD8
:10220400204AA2FB00314909642303FB11031B018B
:102214003233A2FB03235B0903F0F00202EB011249
:1022240003F00F03216813448B6010BD00230218D0
:1022340043EB0301121841F10001C90041EA527154
:10224400D200101841F10001626892185B41FDF759
:10225400B7FF0C4AA2FB00314909642303FB1103B5
:10226400DB003233A2FB03235B095A0002F4F87249
:1022740002EB011203F00703216813448B60D4E7D7
:10228400001001401F85EB5160B310B5044690F86F
:10229400413013B3242384F841302268D36823F4F3
:1022A4000053D3602046FFF767FF2268136923F4C5
:1022B400904313612268536923F02A03536122680F
:1022C400D36843F40053D36000206064202384F86F
:1022D400413084F84230606310BD80F84030FEF72E
:1022E40055FAD7E701207047DFF834D0FEF7DCF960
:1022F4000C480D490D4A002302E0D458C45004335D
:10230400C4188C42F9D30A4A0A4C002301E0136032
:102314000432A242FBD300F019F8FEF771F97047BA
:1023240000000220000000200C000020802600088D
:102334000C00002094010020FEE70244034693426F
:1023440000D1704703F8011BF9E7000070B50D4D8B
:102354000D4C641BA4100026A64209D10B4D0C4C55
:1023640000F068F9641BA4100026A64205D170BDD4
:1023740055F8043B98470136EEE755F8043B984777
:102384000136F2E778260008782600087826000847
:102394007C2600082DE9F04786468C460846089EB0
:1023A400154674461946002B40F0C2808542B2FAA5
:1023B40082F245D94AB1C2F1200300FA02FC2EFA96
:1023C40003F3954043EA0C0C94404FEA154EA8B22F
:1023D400BCFBFEF8230C0EFB18CC08FB00F943EA07
:1023E4000C43994528D9EB1808F1FF3704D29945D5
:1023F40002D9A8F102072B44A3EB0903A4B2B3FB4F
:10240400FEFC0EFB1C330CFB00F044EA0344A04228
:1024140014D92C190CF1FF3304D2A04202D9ACF127
:1024240002032C44241A43EA07401EB1D44000237B
:1024340034607360BDE8F0874746DDE76346F1E743
:1024440092BB431B01214FEA154EAFB2B3FBFEFC16
:10245400200C0EFB1C330CFB07F840EA03439845A1
:1024640062D9EB180CF1FF3004D2984502D9ACF1D3
:1024740002002B44A3EB0803A4B2B3FBFEFC0EFB47
:102484001C330CFB07F744EA0344A7424ED92C192A
:102494000CF1FF3304D2A74202D9ACF102032C445D
:1024A400E41B43EA0040C0E7C2F1200320FA03F131
:1024B400954090402EFA03F303434FEA154EAFB212
:1024C400B1FBFEFC0EFB1C10190C0CFB07F841EAD7
:1024D4000041884504FA02F422D969180CF1FF304E
:1024E40004D2884502D9ACF102002944A1EB0801C9
:1024F4009BB2B1FBFEFC0EFB1C110CFB07F743EA7D
:1025040001439F420ED9EB180CF1FF3104D29F42D4
:1025140002D9ACF102012B44DB1B41EA004192E7F2
:102524006046E3E76146F7E76046A3E76346B7E73B
:10253400834206D916B9002108467BE7C6E900E0C4
:10254400F9E7B3FA83F78FB9834201D3724508D808
:10255400BEEB020460EB030301209C461EB900217C
:1025640068E73846FAE7C6E9004CF8E7C7F1200CFB
:10257400BB4022FA0CF41C432EFA0CF120FA0CF3A3
:10258400B84001434FEA14490EFA07F5B3FBF9F8D2
:102594001FFA84FE09FB18300B0C08FB0EFA43EA01
:1025A40000439A4502FA07F240D9E31808F1FF30D4
:1025B40004D29A4502D9A8F102002344A3EB0A03EA
:1025C40089B2B3FBF9F809FB183308FB0EFE41EAA4
:1025D40003418E452CD9611808F1FF3304D28E458E
:1025E40002D9A8F10203214443EA0040A0FB029867
:1025F400A1EB0E014145CE46434602D306D14D45DB
:1026040004D2B9EB020E68EB04030138002EA6D005
:10261400B5EB0E0261EB030101FA0CFC22FA07F39D
:102624004CEA0303F940C6E9003198E74046C5E7A0
:102634004346D9E7F8B500BFF8BC08BC9E467047CE
:0C264400F8B500BFF8BC08BC9E4670470B
:102650000000000001020304000000000000000070
:1026600001020304060708090006101600061016EA
:0826700028FDFF7F01000000BE
:042678001D02000837
:04267C00F901000858
:0C2680000024F400010000001000000025
:04000005080022EDE0
:00000001FF
